Creation Time:2024/11/28 19:34:05
Firmware Ver:V1.6.663
Device Type:0xF2
Device Name:AC7000-AE-25(I)
Segment Num:1
Segment Name:CONTROL
Board List:0
:020000040800F2
:1000000078160020A1260008630E0008650E00087F
:10001000690E00086D0E0008710E00080000000057
:10002000000000000000000000000000750E000845
:10003000770E000800000000790E00082D0B000864
:10004000B7260008B7260008B7260008B72600081C
:10005000B7260008B7260008B7260008B72600080C
:10006000B7260008B7260008B7260008B7260008FC
:10007000B7260008B7260008B7260008B7260008EC
:10008000B7260008B7260008B7260008B7260008DC
:10009000B7260008B7260008B7260008B7260008CC
:1000A000B7260008B7260008B7260008B7260008BC
:1000B0007D0E0008B7260008B7260008B7260008FE
:1000C000B7260008B7260008B7260008B72600089C
:1000D000B7260008390B0008DB0B00087D0C000870
:1000E000B7260008B7260008B72600080000000061
:1000F0000000000000000000000000000000000000
:100100000000000000000000B7260008B726000825
:100110001F0D0008C10D0008B7260008B72600080B
:10012000B7260008B7260008B7260008B72600083B
:10013000B7260008B7260008B7260008B72600082B
:10014000B7260008B7260008B7260008B72600081B
:1001500000F002F800F03AF80AA090E8000C82449F
:100160008344AAF10107DA4501D100F02FF8AFF27C
:10017000090EBAE80F0013F0010F18BFFB1A43F085
:100180000103184788430000A8430000103A24BF29
:1001900078C878C1FAD8520724BF30C830C144BFEC
:1001A00004680C607047000000230024002500262E
:1001B000103A28BF78C1FBD8520728BF30C148BFCA
:1001C0000B6070471FB51FBD10B510BD04F067F977
:1001D0001146FFF7F7FF03F091F904F085F903B436
:1001E000FFF7F2FF03BC04F089F90000EFF3098088
:1001F000704780F309887047EFF30880704780F3F9
:100200000888704740BA7047C0BA704771B67047E7
:1002100061B6704701460020FE4A106800F03800C1
:10022000084310607047FB49096821F00801F94A4A
:10023000116011460968014311607047F54909686A
:1002400021F01001F34A1160114609680143116061
:100250007047F148EF494860F04848607047EE4801
:10026000EC494860ED4848607047EA48006940F052
:100270008000E84908617047E648006940F0800066
:10028000E449086170470420E249C96811F0010F90
:1002900001D001200EE0DF49C96811F0040F01D040
:1002A000022007E0DB49C96811F0100F01D00320DC
:1002B00000E00420704700B502460423FFF7E3FF87
:1002C000034603E0FFF7DFFF0346521E012B01D177
:1002D000002AF7D102B90523184600BD30B50446FF
:1002E0000425CF48FFF7E7FF0546042D16D1C9487E
:1002F000006940F00200C74908610846446100698E
:1003000040F040000861C648FFF7D5FF0546C148E8
:10031000006941F6FD710840BE490861284630BDBC
:1003200010B50424BE48FFF7C6FF0446042C15D1BF
:10033000B848006940F00400B64908610846006901
:1003400040F040000861B648FFF7B5FF0446B148E9
:10035000006941F6FB710840AE490861204610BDB6
:1003600000B502460423FFF78EFF034603E0FFF7C4
:100370008AFF0346521E012B01D1002AF7D102B990
:100380000523184600BD10B50424A548FFF7E8FF73
:100390000446042C15D19F48006940F004009D4993
:1003A00008610846006940F0400008619C48FFF77A
:1003B000D7FF04469748006941F6FB71084095490C
:1003C0000861204610BD00209249C96911F0020F52
:1003D00001D0012000E00020704730B5A52504249D
:1003E000FFF7F1FF00B100258D48FFF764FF0446D9
:1003F000042C39D188488749886088488860084635
:10040000006940F0200008610846006940F04000A3
:1004100008618348FFF74FFF0446042C1BD17D4839
:10042000006941F6DF7108407A49086108460069B1
:1004300040F0100008617B4805804013FFF73BFF48
:100440000446052C10D07348006941F6EF7108404E
:100450007049086108E0052C06D06E48006941F635
:10046000EF7108406B490861204630BD78B50646FB
:100470000C460425002000904FF6FF70FFF71BFF8D
:100480000546042D26D16348006940F0010061490A
:10049000086134804FF6FF70FFF70DFF0546042D0D
:1004A00011D1B01C0090200C009908804FF6FF700D
:1004B000FFF701FF05465748006941F6FE71084005
:1004C0005449086106E05348006941F6FE7108404E
:1004D00050490861284678BD70B504460D4604268B
:1004E0004FF6FF70FFF7E7FE0646042E12D149488B
:1004F000006940F001004749086125804FF6FF7010
:10050000FFF7D9FE06464348006941F6FE710840F0
:1005100040490861304670BD70B505460E4604245A
:100520004FF6FF70FFF7C7FE0446042C18D13A4877
:1005300038498860394888600846006940F01000F2
:1005400008612E804FF6FF70FFF7B5FE0446052CBC
:1005500006D03048006941F6EF7108402D49086126
:10056000204670BD2DE9F04304464FF6FF7637462E
:10057000B046B1460425E443E6B2C4F30727C4F30A
:1005800007484FEA14694FF6FF70FFF794FE0546DF
:10059000042D4BD120481F498860204888600846B8
:1005A000006940F010000861FF2E06D01D48083099
:1005B00006804013FFF77FFE0546042D08D1FF2F6C
:1005C00006D018480A3007804013FFF774FE05462E
:1005D000042D0AD1B8F1FF0F07D012480C30A0F853
:1005E00000804013FFF767FE0546042D0AD1B9F1DC
:1005F000FF0F07D00B480E30A0F800904013FFF714
:100600005AFE0546052D11D00248006941F6EF71EA
:10061000084009E00020024023016745AB89EFCD87
:10062000FFFF0F0000F8FF1F654908612846BDE87D
:10063000F08330B5054604246248FFF73CFE0446CB
:10064000042C3FD160485E49886060488860084655
:10065000006940F0200008610846006940F0400051
:1006600008615848FFF727FE0446042C21D154485E
:10067000006941F6DF710840514908610846006988
:1006800040F0100008611DB100205149088002E0CF
:10069000A5204F4908804B48FFF70DFE0446052C66
:1006A00010D04748006941F6EF710840444908619D
:1006B00008E0052C06D04248006941F6DF71084089
:1006C0003F490861204630BDF0B505460E46174645
:1006D00004243D483A4988603C4888604FF6FF70E2
:1006E000FFF7E9FD0446042C19D13548006940F0B4
:1006F00010003349086147F0F8003043284334497B
:10070000891C08804813FFF7D6FD0446052C06D047
:100710002B48006941F6EF710840294908612046DD
:10072000F0BD2748C069800870472548006A7047B7
:1007300000202349096811F0200F01D0012000E0BA
:100740000020704729B11E4A126902431C4B1A61EE
:1007500004E01B4A12698243194B1A617047014633
:100760000020012908D1164AD26912F0010F01D0E8
:10077000012008E0002006E0114AD2680A4201D0B8
:10078000012000E0002070470D49C8607047042038
:100790000B49C96811F0010F01D001200EE0084992
:1007A000C96811F0040F01D0022007E00449C968AC
:1007B00011F0100F01D0032000E00420704700006A
:1007C00000200240FFFF0F0023016745AB89EFCDFA
:1007D00000F8FF1F10B50446CA48844208D1012121
:1007E000042000F09FFD0021042000F09BFD46E066
:1007F000C548844208D10121082000F093FD002162
:10080000082000F08FFD3AE0C048844208D1012161
:10081000102000F087FD0021102000F083FD2EE065
:10082000BB48844208D10121202000F07BFD00213B
:10083000202000F077FD22E0B648844208D1012153
:10084000402000F06FFD0021402000F06BFD16E01D
:10085000B148844208D10121802000F063FD0021CD
:10086000802000F05FFD0AE0AC48844207D10121FE
:10087000801500F057FD0021A01500F053FD10BDBC
:1008800010B50121084600F04DFD0021012000F0C7
:1008900049FD10BD2DE9F04102460025002600204B
:1008A00000230024002791F803C00CF00F0591F8F5
:1008B00003C01CF0100F03D091F802C04CEA0505EC
:1008C00091F800C0BCF1000F31D0146800202BE07B
:1008D0004FF0010C0CFA00F3B1F800C00CEA03066B
:1008E0009E4220D183004FF00F0C0CFA03F7BC435B
:1008F00005FA03FC4CEA040491F803C0BCF1280F8C
:1009000006D14FF0010C0CFA00FCC2F814C00AE04A
:1009100091F803C0BCF1480F05D14FF0010C0CFA5F
:1009200000FCC2F810C0401C0828D1D31460B1F8F4
:1009300000C0BCF1FF0F34DD546800202EE000F150
:10094000080C4FF0010808FA0CF3B1F800C00CEAEB
:1009500003069E4221D183004FF00F0C0CFA03F7DF
:10096000BC4305FA03FC4CEA040491F803C0BCF153
:10097000280F05D100F1080C08FA0CF8C2F8148011
:1009800091F803C0BCF1480F07D100F1080C4FF0FB
:10099000010808FA0CF8C2F81080401C0828CED3D1
:1009A0005460BDE8F0814FF6FF7101800221817033
:1009B0000421C17070470246002093680B4201D0A9
:1009C000012000E0002070470146886880B270472F
:1009D00002460020D3680B4201D0012000E0002035
:1009E00070470146C86880B2704701617047416135
:1009F00070470AB1016100E041617047C160704712
:100A00004FF480320A438261816182618269826926
:100A1000704702460020424B18684FF6807318401A
:100A200040EA021008433E4B186070473D49C861D8
:100A30007047F0B50A46002300240021002500F08D
:100A40000046B6F1004F02D1354EF16901E0344E57
:100A50007168C0F3034583B200F44016B6F5401F39
:100A600008D121F070612E4E766826F070662C4F0A
:100A70007E6012E000F48016B6F5801F06D10326D2
:100A800006FA05F4A14341F0706106E0460D360117
:100A900003FA06F6B14341F0706122B1460D36010A
:100AA00003FA06F6314300F00046B6F1004F02D1DA
:100AB0001B4EF16101E01A4E7160F0BD30B50022AD
:100AC0008B071C0F0F2303FA04F2154B08338C100D
:100AD00053F824309343124C08348D1044F82530D9
:100AE00023468C1053F824308C07240F00FA04F4AA
:100AF00023430B4C08348D1044F8253030BD0A498F
:100B00000860704700080140000C014000100140DF
:100B10000014014000180140001C01400020014069
:100B20000000014000002042DC002042D64800685E
:100B3000401CD5490860704738B540F22551D3486C
:100B400000F0EEFD60B1D14800F06AFD0446E1B26C
:100B5000002002F0DFFF40F22551CC4800F00AFEF1
:100B600040F22661C94800F0DBFD70B16946002003
:100B700002F01AFF20B19DF80010C44800F04CFDAF
:100B800040F22661C14800F0F5FD0821BF4800F0A1
:100B9000B1FD012806D10821BC4800F0B8FDBB48D2
:100BA00000F03EFD0421B94800F0A4FD012806D163
:100BB0000421B64800F0ABFDB44800F031FD02213D
:100BC000B24800F097FD012806D10221AF4800F09D
:100BD0009EFDAE4800F024FD38BD38B540F22551E9
:100BE000AB4800F09DFD60B1A94800F019FD044636
:100BF000E1B2012002F08EFF40F22551A44800F03E
:100C0000B9FD40F22661A24800F08AFD70B1694644
:100C1000012002F0C9FE20B19DF800109C4800F0B0
:100C2000FBFC40F226619A4800F0A4FD0821984898
:100C300000F060FD012806D10821954800F067FD0D
:100C4000934800F0EDFC0421914800F053FD012889
:100C500006D104218E4800F05AFD8D4800F0E0FCDA
:100C600002218B4800F046FD012806D10221884868
:100C700000F04DFD864800F0D3FC38BD38B540F299
:100C80002551844800F04CFD60B1824800F0C8FC5A
:100C90000446E1B2022002F03DFF40F225517D48BA
:100CA00000F068FD40F226617A4800F039FD70B12D
:100CB0006946022002F078FE20B19DF800107548C8
:100CC00000F0AAFC40F22661724800F053FD0821B2
:100CD000704800F00FFD012806D108216D4800F092
:100CE00016FD6C4800F09CFC04216A4800F002FDEF
:100CF000012806D10421674800F009FD654800F08D
:100D00008FFC0221634800F0F5FC012806D1022186
:100D1000604800F0FCFC5F4800F082FC38BD38B54C
:100D200040F225515C4800F0FBFC60B15A4800F0ED
:100D300077FC0446E1B2032002F0ECFE40F22551BC
:100D4000554800F017FD40F22661534800F0E8FCDA
:100D500070B16946032002F027FE20B19DF8001013
:100D60004D4800F059FC40F226614B4800F002FD6E
:100D70000821494800F0BEFC012806D10821464858
:100D800000F0C5FC444800F04BFC0421424800F050
:100D9000B1FC012806D104213F4800F0B8FC3E48D0
:100DA00000F03EFC02213C4800F0A4FC012806D1E2
:100DB0000221394800F0ABFC374800F031FC38BD67
:100DC00038B540F22551354800F0AAFC60B13348EF
:100DD00000F026FC0446E1B2042002F09BFE40F243
:100DE00025512E4800F0C6FC40F226612B4800F049
:100DF00097FC70B16946042002F0D6FD20B19DF841
:100E00000010264800F008FC40F22661234800F05C
:100E1000B1FC0821214800F06DFC012806D1082111
:100E20001E4800F074FC1D4800F0FAFB04211B482A
:100E300000F060FC012806D10421184800F067FC8E
:100E4000164800F0EDFB0221144800F053FC012885
:100E500006D10221114800F05AFC104800F0E0FBD6
:100E600038BD704700BFFEE700BFFEE700BFFEE7EA
:100E700000BFFEE7704770477047704710B501210B
:100E8000880701F0F8FB10BD140000200038014075
:100E90000044004000480040004C0040005000402A
:100EA000F948006840F00100F749086008464068CA
:100EB000F6490840F449486008460068F44908408B
:100EC000F14908600846006820F480200860084660
:100ED000406820F4FE0048600846006820F0A050FA
:100EE00008604FF47F0088600020C8627047E649C0
:100EF000096821F48031E44A11601146096821F43F
:100F000080211160B0F5803F03D0B0F5802F0ED165
:100F100006E0DD49096841F48031DB4A116007E0F1
:100F2000D949096841F4A021D74A116000E000BF07
:100F300000BF704710B501460022002300204A116F
:100F4000012A02D1D04C236806E0022A02D1CE4CFD
:100F5000236A01E0CC4C636A01F01F020124944033
:100F60001C4201D0012000E0002010BD38B5002057
:100F700000900024002500BF3120FFF7DBFF05466D
:100F80000098401C00900098A0F57F41FF3901D0E7
:100F9000002DF1D03120FFF7CDFF08B1012400E092
:100FA0000024204638BD01460020B74A106820F0D2
:100FB000F80040EAC10010607047B6490860704709
:100FC00002460020B04B586820F4741042EA010336
:100FD0001843AD4B58607047AE49086670470246EB
:100FE0000020A94BD86AAC4B184042EA01031843D1
:100FF000A54BD862704701460020A34AD06A20F072
:10100000F0000843D0627047014600209E4AD06A33
:1010100020F470600843D06270479E49886670472C
:1010200001460020984AD06A20F470400843D062FC
:10103000704798490867704701460020924A5068F7
:1010400020F003000843506070478F48406800F06C
:101050000C007047014600208B4A506820F0F000D9
:1010600008435060704701460020874A506820F4CA
:10107000E06008435060704701460020824A506893
:1010800020F4605040EAC1005060704729B17E4AA8
:10109000527A02437C4B5A7204E07B4A527A824372
:1010A000794B5A7270477D490860704701460020AD
:1010B000754A506820F440400843506070477849B2
:1010C000086070477649091D086070470021754A1D
:1010D00011706D4A82F82010012802D0042808D12E
:1010E00003E001216F4A117004E005216D4A11707F
:1010F00000E000BF00BF70476B490860704762495D
:10110000096A0143604A11627047674944390860BF
:1011100070472DE9F0410021002200250023002620
:10112000002400278C46DFF86081D8F8048008F09E
:101130000C0121B1042907D0082959D109E0DFF8B1
:101140006C81C0F8008058E0DFF86081C0F8008052
:1011500053E0DFF83481D8F8048008F47012DFF827
:101160002881D8F8048008F48035920C0D2A01D02B
:10117000921C00E0062235B9DFF8348102FB08F842
:10118000C0F8008033E0DFF80081D8F82C8008F444
:101190008036DFF8F480D8F82C8008F00F0808F1CA
:1011A000010446B9DFF80481B8FBF4F808FB02F843
:1011B000C0F800801BE0DFF8D080D8F82C80C8F39E
:1011C000031808F10107DFF8C080D8F82C80C8F3B5
:1011D000032808F1020CDFF8D480B8FBF7F808FB0D
:1011E0000CF8B8FBF4F808FB02F8C0F8008004E043
:1011F000DFF8B880C0F8008000BF00BFDFF888804B
:10120000D8F8048008F0F0010909DFF8A88018F880
:101210000130D0F8008028FA03F8C0F80480DFF825
:101220006880D8F8048008F4E061090ADFF8848057
:1012300018F80130D0F8048028FA03F8C0F80880C4
:10124000DFF84480D8F8048008F46051C90ADFF858
:10125000648018F80130D0F8048028FA03F8C0F848
:101260000C80DFF82480D8F8048008F44041890B12
:10127000DFF8448018F80130D0F80C80B8FBF3F8A0
:10128000C0F81080BDE8F081001002400000FFF0BF
:10129000FFFFF6FE00004242F0FFFEFFD800424290
:1012A000C4054242201002408004424200127A00EB
:1012B00000093D00000000201000002029B1354A3F
:1012C00052690243334B5A6104E0324A5269824305
:1012D000304B5A61704729B12E4A926902432D4B17
:1012E0009A6104E02B4A926982432A4B9A617047C3
:1012F00029B1284AD2690243264BDA6104E0254A23
:10130000D2698243234BDA61704729B1214A926A3C
:101310000243204B9A6204E01E4A926A82431D4BAC
:101320009A62704729B11B4AD2680243194BDA60AE
:1013300004E0184AD2688243164BDA60704729B13C
:10134000144A12690243134B1A6104E0114A1269EC
:101350008243104B1A6170470F49086070470F496C
:10136000C86470470B49C87170470A48406A40F02A
:10137000807008494862704701460020054A92681B
:101380000A4201D0012000E0002070470149887224
:1013900070470000001002404004424200004242F8
:1013A00010B50446FB48844209D101218803FFF7A8
:1013B000B9FF00214FF48040FFF7B4FF32E0F64858
:1013C000844209D101214804FFF7B9FF00214FF4FD
:1013D0000030FFF7B4FF25E0F048844209D1012135
:1013E0008804FFF7ACFF00214FF48020FFF7A7FF30
:1013F00018E0EB48844209D10121C804FFF79FFFA0
:1014000000214FF40020FFF79AFF0BE0E5488442EB
:1014100008D101210805FFF792FF00214FF4801049
:10142000FFF78DFF10BD2DE9F04786B005460E464B
:101430000024A24600BFA1460027B08900B100BF2A
:101440002F462C8A4CF6FF700440F08804432C820F
:10145000AC894EF6F3100440B08831890843718995
:1014600008430443AC81AC8A4FF6FF400440B08986
:101470000443AC8201A8FFF74CFEC648874202D164
:10148000DDF810A001E0DDF80CA0A88910F4004FF1
:1014900008D00AEBCA0000EB0A1031684900B0FB23
:1014A000F1F807E00AEBCA0000EB0A103168890086
:1014B000B0FBF1F86420B8FBF0F0040120096421CE
:1014C00001FB1089A88910F4004F08D0322000EBEE
:1014D000C900B0FBF1F000F00700044308E032203F
:1014E00000EB09106421B0FBF1F000F00F000443A1
:1014F0002C8106B0BDE8F0874FF416510160002141
:101500008180C18001810C2141810021818170474E
:1015100010B502460020108A4FF2FF0318400B88D6
:101520004C8823438C882343CC8823431843108260
:1015300010BD0021018041808180C180704721B1B0
:10154000828942F40052828104E082894DF6FF7361
:101550001A4082817047F0B503460024002600251A
:101560000020A1F510676A3F00D100BF1846C1F303
:10157000421401F01F06012707FA06F5012C01D1DC
:101580000C3004E0022C01D1103000E014301AB10C
:1015900007682F43076002E00768AF430760F0BDAC
:1015A0001AB1838A0B43838202E0838A8B4383824E
:1015B0007047028A4FF6F0731A400282028A0A4389
:1015C0000282704782894FF2FF731A4082818289BA
:1015D0000A438281704721B1828942F002028281EE
:1015E00004E082894FF6FD731A4082817047028AB7
:1015F0004FF6DF731A400282028A0A430282704762
:1016000021B1028A42F48042028204E0028A4BF64F
:10161000FF731A4002827047C1F30802828070474C
:1016200001468888C0F308007047818941F00101B4
:1016300081817047028BD2B20283028B42EA01227F
:1016400002837047028B02F47F420283028B0A43BB
:101650000283704721B1828A42F02002828204E034
:10166000828A4FF6DF731A408282704721B1828AE4
:1016700042F01002828204E0828A4FF6EF731A4031
:101680008282704721B1828A42F00802828204E09D
:10169000828A4FF6F7731A408282704721B182899D
:1016A00042F40042828103E08289C2F30E02828109
:1016B000704721B1828A42F40062828204E0828A09
:1016C0004FF2FF731A4082827047828A4FF6FB7393
:1016D0001A408282828A0A438282704721B1828ABA
:1016E00042F00202828204E0828A4FF6FD731A40C1
:1016F0008282704702460020B1F5007F00D100BF12
:1017000013880B4201D0012000E00020704701F453
:101710000072B2F5007F00D100BFCA43028070475B
:1017200070B502460024002300250020A1F51066B4
:101730006A3E00D100BFC1F3421501F01F0301262C
:1017400006FA03F3012D02D19689334006E0022DFB
:1017500002D1168A334001E0968A33400C120126EA
:1017600006FA04F41688344013B10CB1012000E0ED
:10177000002070BD10B500220023A1F510646A3C62
:1017800000D100BF0A1201249440A3B2DC430480BC
:1017900010BD0000003801400044004000480040F7
:1017A000004C00400050004031490143314A116073
:1017B000704770B5002100230F22C4780CB32D4C64
:1017C000246804F4E064C4F5E064210AC1F1040370
:1017D000CA40447804FA03F1847814402143090193
:1017E000254C0678A155047804F01F050124AC406F
:1017F00005786D114FF0E02606EB8505C5F8004130
:1018000009E0047804F01F050124AC401B4D067864
:10181000761145F8264070BD194A0A400243154B1F
:101820001B1F1A60704739B1124A121D1268024319
:10183000104B1B1D1A6006E00E4A121D12688243EF
:101840000C4B1B1D1A607047042808D14FF0E02193
:10185000096941F004014FF0E022116107E04FF007
:10186000E021096921F004014FF0E0221161704785
:101870000000FA050CED00E000E400E080E100E08B
:1018800080FFFF1F10B50446FE48844208D10121A5
:10189000C014FFF747FD0021E014FFF743FDC4E04B
:1018A000B4F1804F08D101210846FFF748FD00211F
:1018B0000120FFF744FDB8E0F348844208D101213C
:1018C0000220FFF73CFD00210220FFF738FDACE0CD
:1018D000EE48844208D101210420FFF730FD0021A9
:1018E0000420FFF72CFDA0E0E948844208D1012143
:1018F0000820FFF724FD00210820FFF720FD94E0D9
:10190000E448844208D101211020FFF718FD00218E
:101910001020FFF714FD88E0DF48844208D1012140
:101920002020FFF70CFD00212020FFF708FD7CE0C0
:10193000DA48844208D101214014FFF7F3FC00216A
:101940006014FFF7EFFC70E0D548844209D1012113
:10195000C804FFF7E7FC00214FF40020FFF7E2FC8A
:1019600063E0D048844209D101210805FFF7DAFC81
:1019700000214FF48010FFF7D5FC56E0CA4884429E
:1019800009D101214805FFF7CDFC00214FF40010DB
:10199000FFF7C8FC49E0C548844208D10121402036
:1019A000FFF7CDFC00214020FFF7C9FC3DE0C04817
:1019B000844208D101218020FFF7C1FC0021802052
:1019C000FFF7BDFC31E0BB48844208D101218015FE
:1019D000FFF7B5FC0021A015FFF7B1FC25E0B648E4
:1019E000844209D101210804FFF79CFC00214FF437
:1019F0008030FFF797FC18E0B048844209D10121FC
:101A00004804FFF78FFC00214FF40030FFF78AFCF9
:101A10000BE0AB48844208D101218804FFF782FC27
:101A200000214FF48020FFF77DFC10BD00220288CA
:101A3000944B98420ED0994B98420BD0B0F1804F06
:101A400008D0914B984205D0904B984202D0904BD1
:101A5000984204D14FF68F731A404B881A438D4B2E
:101A6000984207D08C4B984204D04FF6FF431A405F
:101A7000CB881A4302808B8883850B880385814B32
:101A800098420BD0854B984208D08B4B984205D09A
:101A90008A4B984202D08A4B984201D10B7A038636
:101AA00001238382704770B5002400220023058C37
:101AB0004FF6FE7635400584028C8388048B4FF602
:101AC0008F752C40B51E2C400D882C43751E2A4066
:101AD0000D892A434D882A436A4DA8420BD06F4D89
:101AE000A84208D0744DA84205D0744DA84202D037
:101AF000734DA84213D14FF6F7752A404D892A43FA
:101B00004FF6FB752A408D882A434FF6FF652B4020
:101B10004FF6FF552B408D892B43CD892B43838076
:101B20000483CD888586028470BD70B500240022B0
:101B30000023058C4FF6EF7635400584028C8388B0
:101B4000048B48F6FF752C404FF6FF452C400D885E
:101B50004FF6FF7606EA05252C434FF6DF752A403F
:101B60000D8906EA05152A434D8806EA05152A431C
:101B7000444DA84202D0494DA8421DD14FF67F7571
:101B80002A404D894FF6FF7606EA05152A434FF69F
:101B9000BF752A408D8806EA05152A434FF6FF35A2
:101BA0002B404FF2FF752B408D8906EA85052B43AC
:101BB000CD8906EA85052B4383800483CD8805877C
:101BC000028470BD70B5002400220023058C4FF6FE
:101BD000FF6635400584028C8388848B4FF68F75B1
:101BE0002C404FF6FC752C400D882C434FF6FF55CA
:101BF0002A400D894FF6FF7606EA05252A434D88CF
:101C000006EA05252A431F4DA84202D0234DA842CB
:101C10001DD14FF2FF752A404D894FF6FF7606EA37
:101C200005252A434FF6FF352A408D8806EA05250B
:101C30002A434EF6FF752B404DF6FF752B408D89DC
:101C400006EA05152B43CD8906EA05152B4383804B
:101C50008483CD888587028470BD70B500220023FF
:101C60000024058C4EF6FF7635400584038C84886D
:101C7000828B48F6FF752A404FF6FF452A400D88B3
:101C800020E00000002C014000040040000800405B
:101C9000000C0040001000400014004000340140DF
:101CA000004C014000500140005401400018004029
:101CB000001C004000200040004001400044014062
:101CC000004801404FF6FF7606EA05252A434DF607
:101CD000FF752B400D8906EA05352B434D8806EA32
:101CE00005352B43FA4DA84202D0FA4DA84208D13F
:101CF0004BF6FF752C408D894FF6FF7606EA851569
:101D00002C4384808283CD88A0F84050038470BD2A
:101D1000828B4FF2FF331A408283828B4FF6FF7320
:101D200003EA01231A4382837047F0B50C46154637
:101D3000002200210026078C4EF6FF7C07EA0C07E4
:101D40000784828B018C4FF6FF7707EA043640F652
:101D5000FF473A404FF6FF7707EA05273A434FF629
:101D6000FF7707EA03373A43D94FB8420ED0D94F2D
:101D7000B8420BD0B0F1804F08D0D74FB84205D051
:101D8000D64FB84202D0D64FB84206D14DF6FF77B3
:101D9000394046F48057394305E047F6FF5739404C
:101DA00044F48057394382830184F0BD828B4FF61F
:101DB000F3731A408283828B0A4382837047F0B5A3
:101DC0000C461546002200210026078C4FF6FF6CBA
:101DD00007EA0C070784828B018C4FF6FF7707EA2E
:101DE00004264FF60C773A404FF6FF7707EA0317C1
:101DF0002F433A43B64FB8420ED0B64FB8420BD03D
:101E0000B0F1804F08D0B44FB84205D0B34FB842BC
:101E100002D0B34FB84206D14FF6FF57394046F4CF
:101E20008077394305E04FF2FF57394044F480771B
:101E3000394382830184F0BD028B4FF2FF331A4095
:101E40000283028B4FF6FF7303EA01231A430283D6
:101E50007047F0B50C461546002200210026078C7D
:101E60004FF6EF7C07EA0C070784028B018C4FF6D4
:101E7000FF7707EA041640F6FF473A404FF6FF7730
:101E800007EA03373A434FF6FF7707EA05273A4355
:101E90008F4FB8420ED08F4FB8420BD0B0F1804F69
:101EA00008D08D4FB84205D08C4FB84202D08C4F2D
:101EB000B84206D14FF6DF77394046F01007394374
:101EC00005E04FF65F77394044F01007394302834D
:101ED0000184F0BD028B4FF6F3731A400283028B2C
:101EE0000A4302837047F0B50C46154600220021D4
:101EF000068C4FF6FE773E400684028B018C4FF62F
:101F00000C7632407E1C06EA03162E433243704E96
:101F1000B0420ED06F4EB0420BD0B0F1804F08D01F
:101F20006D4EB04205D06D4EB04202D06C4EB04204
:101F300006D14FF6FD76314044F00106314305E00D
:101F40004FF6F576314044F00106314302830184B7
:101F5000F0BD70B505460C465D4885420ED05D4823
:101F600085420BD0B5F1804F08D05B48854205D043
:101F70005A48854202D05A48854200D100E000BF4D
:101F8000208850B92389A28861882846FFF7ABFFD3
:101F9000E1882846FFF79EFF25E0208804280AD123
:101FA0002389A28861882846FFF753FFE1882846E5
:101FB000FFF742FF17E0208808280AD12389A2886A
:101FC00061882846FFF7FBFEE1882846FFF7EEFE12
:101FD00009E02389A28861882846FFF7A6FEE188E8
:101FE0002846FFF795FE70BD2DE9F04105460C46E9
:101FF00000260127608808B9022600E00026A08894
:10200000012801D1022700E001272088A0B92389F7
:10201000A28861882846FFF766FFE1882846FFF717
:1020200059FF23893A4631462846FFF712FFE188D7
:102030002846FFF701FF13E02389A288618828461C
:10204000FFF707FFE1882846FFF7F6FE23893A46A7
:1020500031462846FFF747FFE1882846FFF73AFF59
:10206000BDE8F0810A884B881A438B881A43CB88D5
:102070001A430B891A434B891A438B891A43A0F8D8
:10208000442070474FF6FF71818000210180C1809C
:102090004180017270470021018041808180C180B0
:1020A000018141818181C18170470021018041808E
:1020B000012181800021C1800181704700210180C0
:1020C00041808180C1800181418181817047000010
:1020D000002C014000340140000400400008004092
:1020E000000C004021B1028842F00102028004E0AD
:1020F00002884FF6FE731A400280704731B1B0F883
:10210000442042F40042A0F8442005E0B0F8442006
:10211000C2F30E02A0F8442070471AB183890B4322
:10212000838102E083898B4383817047818270477A
:1021300041EA0203A0F8483070471AB183890B4383
:10214000838102E083898B438381704701894FF645
:10215000F8721140018170470A46002101894FF64B
:102160008F73194011430181704730B504460D4605
:1021700029462046FFF7F0FF208940F00700208124
:1021800030BD2DE9F04104460D4616461F46602D30
:1021900006D13B46012231462046FFF75AFE05E0B4
:1021A0003B46012231462046FFF79DFE2946204648
:1021B000FFF7D2FF208940F007002081BDE8F081C1
:1021C00030B50C4600210189C9B24FF6FF7505EA0A
:1021D0000325154325432943018130BD2DE9F041F5
:1021E00005460E4617469846002443463A46314671
:1021F0002846FFF7E5FF2C894FF6F870044044F0BD
:1022000007044FF68F70044044F070042C81BDE841
:10221000F081F0B504460D4616461F463B46324651
:1022200029462046FFF7CCFF208940F480402081DA
:10223000F0BD0185828270470A46002101884FF671
:102240008F731940114301807047F0B50C46154655
:102250001E460021002200230189028B038C4FF6C9
:10226000F877394021434FF6FC473A4040F20117D6
:102270003A434FF6DD773B404FF6FF7707EA061704
:102280002F433B43018102830384F0BD0A460021B2
:10229000018B4FF68F7319401143018370470A4633
:1022A0000021018B48F6FF7319404FF6FF7303EAD4
:1022B00002231943018370470A460021818B4FF6A0
:1022C0008F7319401143818370470A460021818B27
:1022D00048F6FF7319404FF6FF7303EA02231943D0
:1022E0008183704721B1028842F08002028004E0BD
:1022F00002884FF67F731A400280704721B18288AE
:1023000042F00402828004E082884FF6FB731A4098
:102310008280704721B1828842F00802828004E006
:1023200082884FF6F7731A408280704721B1828805
:1023300042F00102828004E082884FF6FE731A4068
:10234000828070470A460021018B4FF6F7731940CF
:102350001143018370470A460021018B4FF2FF733E
:1023600019404FF6FF7303EA0223194301837047B4
:102370000A460021818B4FF6F77319401143818380
:1023800070470A460021818B4FF2FF7319404FF6C8
:10239000FF7303EA02231943818370470A46002131
:1023A000018B4FF6FB7319401143018370470A46B6
:1023B0000021018B4FF6FF3319404FF6FF7303EAFC
:1023C00002231943018370470A460021818B4FF68F
:1023D000FB7319401143818370470A460021818BAA
:1023E0004FF6FF3319404FF6FF7303EA02231943F8
:1023F000818370470A460021018B4FF67F73194095
:102400001143018370470A460021018BC1F30E017D
:102410004FF6FF7303EA02231943018370470A460C
:102420000021818B4FF67F731940114381837047E0
:102430000A460021818BC1F30E014FF6FF7303EAB8
:1024400002231943818370470A460021018C4FF60D
:10245000FD7319401143018470470A460021018C25
:102460004FF6F77319401143018470470A46002163
:10247000018C4FF6DF7319404FF6FF7303EA021326
:102480001943018470470A460021018C4FF67F737F
:1024900019404FF6FF7303EA021319430184704792
:1024A0000A460021018C4FF6FF5319404FF6FF7387
:1024B00003EA02231943018470470A460021018C74
:1024C0004FF2FF7319404FF6FF7303EA02231943DB
:1024D000018470470A460021018C4DF6FF731940B4
:1024E0004FF6FF7303EA023319430184704730B596
:1024F000002301248C40A3B2048C9C430484048CEC
:1025000002FA01F5ADB22C43048430BD30B500238E
:1025100004248C40A3B2048C9C430484048C02FAEF
:1025200001F5ADB22C43048430BD70B503460020E4
:1025300000241846183001258D40ACB21D8CA543EF
:102540001D8409B1082909D100EB6100056825F057
:10255000700505600568154305600EE00D1FC5F3A5
:102560004E052844056825F4E045056005684FF6EA
:10257000FF7606EA02263543056070BD21B1028868
:1025800042F00202028004E002884FF6FD731A4016
:102590000280704721B1028842F00402028004E008
:1025A00002884FF6FB731A400280704721B182887F
:1025B00042F08002828004E082884FF67F731A40E6
:1025C0008280704702884FF6F7731A4002800288B3
:1025D0000A430280704782884FF68F731A408280C8
:1025E00082880A438280704702894FF6F8731A4046
:1025F000028102890A430281704702894FF67F7384
:102600001A40028102890A4302817047818470471F
:102610008185704781867047018770478187704741
:10262000A0F84010704702884FF6FF431A4002801E
:1026300002880A43028070470146888E704701462F
:10264000088F70470146888F70470146B1F84000F7
:1026500070470146888C70470146088D70470246D6
:102660000020138A0B4201D0012000E000207047B7
:10267000CA430282704730B502460020002300247E
:10268000158A05EA0103958905EA010413B10CB125
:10269000012000E0002030BDCA43028270470000E4
:1026A00008480047FEE7FEE7FEE7FEE7FEE7FEE735
:1026B000FEE7FEE7FEE7FEE703480449044A054B50
:1026C00070470000510100087810002078160020A3
:1026D00078120020781200200020411EFE4A11606E
:1026E0006FF07042FD49C1F884204FF0FF314FF088
:1026F000E022C2F880126FF07042F9490A6000BF10
:1027000003E00022F7490A54401C3C28F9D37047E3
:1027100010B5FEF7C5FB4FF48030FEF7E8FBFEF77F
:1027200025FCF14908700846007801282AD10020CC
:10273000FEF790FC0020FEF79FFC4FF48060FEF750
:1027400092FC4FF40040FEF7B1FC1020FDF776FD3F
:102750000220FDF75FFD4FF4E0114FF48030FEF7EB
:102760002FFC0120FEF738FC00BF3920FEF7E2FB0A
:102770000028FAD00220FEF75FFC00BFFEF765FCE0
:102780000828FBD101217C20FEF7A5FD012188034B
:10279000FEF7A1FD01214FF4F010FEF7A9FD012184
:1027A0000846FEF798FD01214806FEF7A1FD01212C
:1027B0000846FEF79DFD01210420FEF799FD10BD9E
:1027C00008B5FFF789FF00214FF00060FFF724F8FC
:1027D0004FF4A060FEF7E8FF25208DF800000220EE
:1027E0008DF8010000208DF8020001208DF8030013
:1027F0006846FEF7DEFF26208DF8000002208DF8E7
:10280000010001208DF802008DF803006846FEF7F4
:10281000D0FF27208DF8000002208DF801008DF8F0
:10282000020001208DF803006846FEF7C2FF342045
:102830008DF8000002208DF801008DF802000120C3
:102840008DF803006846FEF7B4FF35208DF80000D0
:1028500002208DF801008DF8020001208DF80300A0
:102860006846FEF7A6FF1E208DF8000002208DF8B6
:10287000010003208DF8020001208DF80300684656
:10288000FEF797FF4FF4E060FEF78EFF1C208DF8F7
:10289000000000208DF8020001208DF8030068463A
:1028A000FEF787FF08BD0EB54FF08040FEF7EAFF48
:1028B00042F21070ADF8040040F2CF20ADF80000F5
:1028C0000020ADF8020069464FF08040FFF7AEF8F7
:1028D000012211469007FFF720FC01218807FFF72E
:1028E00001FC0EBD1FB5044600218048FEF727FEFF
:1028F00000940020ADF80400ADF80600ADF8080023
:10290000ADF80C000C20ADF80A0069467748FEF7D8
:102910008AFD01217548FEF712FE012240F2255181
:102920007248FEF718FE012240F226616F48FEF75A
:1029300012FE1FBD70B542F22831B1F1807F00D385
:102940001DE021F07F40401E4FF0E0225061501703
:102950000F22002807DA13071D0E654B00F00F0445
:10296000241F1D5503E013071C0E5E4B1C5400BFB3
:1029700000204FF0E02290610720106100BF6FF04F
:102980000400FEF761FF70BD08B54FF48060ADF83C
:10299000000004208DF8030003208DF80200694632
:1029A0005448FDF777FF4FF40070ADF80000182091
:1029B0008DF8030003208DF8020069464D48FDF7AD
:1029C00069FF01214804FEF793FC0420ADF80000E4
:1029D00018208DF8030003208DF802006946454851
:1029E000FDF758FF0820ADF8000004208DF8030023
:1029F00003208DF8020069463E48FDF74BFF4FF477
:102A00000060ADF8000004208DF8030003208DF86D
:102A1000020069463848FDF73DFF4FF48060ADF88D
:102A2000000018208DF8030003208DF8020069468D
:102A30003148FDF72FFF0420ADF800008DF80300AA
:102A400003208DF8020069462C48FDF723FF4FF460
:102A50008050ADF8000018208DF8030003208DF899
:102A6000020069462448FDF715FF08BD08B5214856
:102A7000FDF7B0FE2248FDF7ADFE1F48FDF7AAFEA8
:102A80001E48FDF7A7FE1F48FDF7A4FE01211E48C2
:102A9000FDF7CFFFC020ADF8000014208DF8030033
:102AA00003208DF8020069461548FDF7F3FE01206A
:102AB000ADF8000010208DF8030003208DF802000F
:102AC00069460C48FDF7E6FE01210A48FDF78FFF35
:102AD0004FF400501AE0000080E100E000E100E067
:102AE00084E200E000E400E018000020004C004018
:102AF00018ED00E000080140001001400014014002
:102B0000000C01400018014000023000ADF8000048
:102B100004208DF8030003208DF8020069465A480E
:102B2000FDF7B8FEC020ADF8000010208DF80300BE
:102B300003208DF8020069465448FDF7ABFE4021A2
:102B40005248FDF754FF80215048FDF750FF4FF4E5
:102B50008070ADF8000010208DF8030003208DF880
:102B6000020069464948FDF795FE4FF48050ADF8E4
:102B7000000010208DF8030003208DF80200694644
:102B80004148FDF787FE44F22020ADF800001020F8
:102B90008DF8030003208DF8020069463A48FDF7DE
:102BA00079FE4FF400713848FDF721FF20213648A7
:102BB000FDF71DFF4FF480413348FDF716FFC0209D
:102BC000ADF8000010208DF8030003208DF80200FE
:102BD00069462F48FDF75EFE40212D48FDF707FFAF
:102BE00080212B48FDF703FF1820ADF800000420DA
:102BF0008DF8030003208DF8020069462248FDF796
:102C000049FE4FF40040ADF8000004208DF80300A9
:102C100003208DF8020069461C48FDF73BFE08BD05
:102C2000014600201B4A12688A4201DD012200E0B1
:102C300000221046704701460A460AB90120704733
:102C4000144800680844FAE770B504460026206876
:102C500011490840B0F1005F04D12068FDF7CFFAB8
:102C60006568A847FDF7D4FA304670BD10B5FDF78A
:102C7000CDFAFFF74DFDFFF7F9FEFFF785FEFFF7F1
:102C800059FEFFF79DFD10BD000C014000080140FA
:102C900000100140140000200000FE2F10B5024675
:102CA000002003E032F8024B231898B20B00A1F188
:102CB0000104A1B2F6D110BD70B50246002414463D
:102CC0000023002011E014F8015B684000230AE0B3
:102CD00010F0010F04D04AF2010585EA600000E01F
:102CE00040105D1CABB2082BF2DB0D00A1F101011D
:102CF000E9D170BD70B504460D46164672082B46E4
:102D00002146A02001F09AFA70BD024600210DE094
:102D100001EB8100F74B13F82000904204D101EB46
:102D2000810003EB80007047481CC1B20029EFD03E
:102D30000020F8E770B54A260020FFF7E6FF0446BA
:102D400004B970BD002524E0A18888B24A22EA496E
:102D5000FFF7D0FF2421E848801CFFF79FFFE649DA
:102D60000988884200D1ECE7A188A26801EB5201F2
:102D700088B24A22E049FFF7BDFF2421DE48801CCB
:102D8000FFF78CFFDC490988884200D1D9E7681C2D
:102D9000C5B2032DD8DB00BFD3E72DE9F047ADF571
:102DA000806D8046894615461C46DDF820A42DB965
:102DB0004FF0FF300DF5806DBDE8F08704F108009D
:102DC000B0F5806F02D94FF0FF30F3E7BAF1000F92
:102DD00009D1CA4800788DF80500C8480078401C21
:102DE000C649087001E08DF805A0FA208DF80000B2
:102DF00003208DF80100ADF802808DF80490ADF845
:102E0000064004F1080086B22246294602A801F0D5
:102E10007BFA31466846FFF74FFF074602A8075581
:102E20003A0A611C4254B01C86B2324669460320FD
:102E300000F02DFE0020BDE7F8B505460E4614460D
:102E40004FF48071AE4801F0ACFAAE480068FFF76D
:102E5000E7FE60B32022A8490A31A94801F054FADC
:102E6000A5488088F22803D0A3488088F52804D19B
:102E7000FF20A34981F8200004E09F480079A04981
:102E800081F8200010229C492A319D48233001F00E
:102E90003BFAE0B27D239A4A022100900020FFF71E
:102EA0007CFF41F28830FFF7C6FE96490860F8BD06
:102EB00038B504464FF48071914801F072FA924897
:102EC0000068FFF7ADFEA8B100208D490870022010
:102ED0004870887000200E230A4603210090FFF7F7
:102EE0005CFF41F28830FFF7A6FE874908600220A8
:102EF0008649087038BD10B58448007820B1012893
:102F000008D002280BD109E0002211461046FFF735
:102F100093FF05E00020FFF7CBFF01E000E000BFDA
:102F200000BF10BD10B502460B460020002103E093
:102F3000545C60404C1CA1B29942F9DB10BD7FB5D6
:102F4000054600200090019002900390002400901C
:102F50000190029003906E480078062802DD002060
:102F60006B4908706A480078032853DA684800788B
:102F700000284FDB67480068FFF752FE012849D15F
:102F800002222046611CCCB20DF80020002220460F
:102F9000611CCCB20DF8002008222046611CCCB286
:102FA0000DF8002034222046611CCCB20DF8002020
:102FB00037222146601CC4B20DF8012001222046B0
:102FC000611CCCB20DF800202046611CCCB20DF87B
:102FD00000202046611CCCB20DF80050E01CC4B2A9
:102FE00003222046611CCCB20DF800202146684621
:102FF000FFF798FF2146621CD4B20DF8010022466B
:103000006946002000F043FD4FF4FA70FFF713FE0D
:10301000404908607FBDFEB504460D4616461F4672
:10302000ADF80440ADF80650ADF80860062301AADB
:103030000B2100200097FFF7B0FE0120FEBD2DE917
:10304000F05F04464FF001092079AB2851D104F11B
:10305000080595F80080AF7994F805A0B8F1000F45
:1030600077D1062F76D2DFE807F08F0609318C037F
:103070004FF00009A0E04FF000099DE0FDF7E9F8EE
:103080003520FDF781FB0026FDF7C0F86F2611E023
:1030900021490A1402FB0610FDF720F91F490870A8
:1030A00008460078042802D10120087000E003E0FF
:1030B000701E06B2002EEBDA00BFFDF7A9F8002E55
:1030C00001DA4FF00009FDF7D0F875E0FDF7C1F81F
:1030D0000026B3466E88A88840EA06460E48864217
:1030E00002D30F4886421DD9FDF7BFF84FF0000903
:1030F00062E069E01C000020800A002048000020F7
:10310000800000203C00002040000020340000200F
:1031100035000020440000200080000851000020FD
:10312000FFFF0308FDF772F84FF0000B18E005F100
:103130000A0000EB4B0001883046FDF7CDF9FE494F
:10314000087008460078042805D1B61C01200870D4
:1031500002E038E02FE006E00BF101001FFA80FBEF
:1031600028895845E3DC00BFFDF752F82889584507
:1031700001DC4FF000090F20FDF79DF8FDF775F811
:103180001AE04FF0000917E04FF47A70FFF753FD93
:10319000064600BF3046FFF743FD0028FAD000BFC7
:1031A000E648006800F4E060E5490843001DE34993
:1031B000086000BF00E000BF00BF53464A463946E2
:1031C0004046FFF728FF11E02079AA2808D104F132
:1031D00008004178122902D10022DA4B1A7005E06A
:1031E0002079A22802D10120D64908700120BDE82B
:1031F000F09FF8B505460E460024002700200090F9
:1032000000BF74E0295DD048B0F80024B0F8000495
:10321000401C83B2CC48A0F80034815490F80204DA
:1032200020BBC9480078FA2804D00021C648A0F87D
:1032300000145AE0C448B0F80004022816DBC24863
:103240004078032804D00021BF48A0F800144CE0C7
:103250000121BD4880F802140021A0F8041441F2B5
:103260008830FFF7E8FCB94908603EE0B648B0F89E
:103270000004B0F5806F06DB0021B348A0F800140D
:1032800080F8021431E0B048B0F80004082804D1F6
:10329000AD48C188A0F8041427E0AB48B0F800148A
:1032A000B0F804040A3081421ED3A748B0F80004E5
:1032B000811EA548FFF700FD0746A348B0F80004AB
:1032C000A149084430F8020C0090BDF80000874284
:1032D00004D10846B0F80014FFF7B1FE00219A4867
:1032E000A0F8001480F8021400BF601C84B2B4423D
:1032F00088DBF8BD10B5C0B04FF48071684601F0AE
:1033000072F84FF480726946032000F063FC0446B3
:103310001CB1A1B26846FFF76CFF8B4890F802041D
:1033200060B18A480068FFF77BFC38B1002186480D
:10333000A0F80014A0F8041480F8021440B010BDE6
:1033400000B58DB04FF4E13009900020ADF82800B1
:10335000ADF82A00ADF82C00ADF82E000C20ADF829
:1033600030007B4808904FF48070079079480690B1
:103370004FF4006005900146764801F012F84FF4D2
:103380008071734801F00DF8DDE90501CDE9030115
:10339000DDE90701CDE901010C980090032009A99E
:1033A0000EC900F0B9FC08B90DB000BD00BFFBE7C5
:1033B00000B58DB04FF4E13009900020ADF8280041
:1033C000ADF82A00ADF82C00ADF82E000C20ADF8B9
:1033D00030006148089080200790604806904020A7
:1033E0000590DDE90501CDE90301DDE90701CDE93E
:1033F00001010C980090002009A90EC900F08CFC76
:1034000008B90DB000BD00BFFBE700B58DB04FF4AB
:10341000E13009900020ADF82800ADF82A00ADF8A1
:103420002C00ADF82E000C20ADF830004A48089072
:10343000802007904948069040200590DDE905016D
:10344000CDE90301DDE90701CDE901010C98009008
:10345000042009A90EC900F05FFC08B90DB000BD39
:1034600000BFFBE710B53E480068401C3C490860BF
:103470000846006842F6041188420ADB39480078A1
:1034800008B9012000E000203649087000203449C6
:10349000086034480078C0B133488088172803D0CA
:1034A0003148808818280AD14FF480512F48FDF701
:1034B0009EFA4FF480712E48FDF799FA1DE04FF403
:1034C00080712B48FDF791FA17E02748808817286C
:1034D00003D02548808818280AD14FF4805123480A
:1034E000FDF785FA4FF480712148FDF77EFA04E07C
:1034F0004FF480711E48FDF77AFA10BDFFF7B6FB56
:10350000FFF71EFFFFF754FFFFF77FFFFCF7A1FE59
:1035100000F0D0FCFFF70EFC164800680088FCF7AE
:1035200077FE154800784F282DD11348401C0078AD
:103530004B2828D122E00000510000200CED00E0D3
:103540000000FA0534000020CA0A002038000020DC
:103550008001002080020020100F0020D00E0020EB
:103560004C00002050000020800A0020000C014088
:103570000008014030000020FCFF0308FCF746FE75
:103580000C48FFF761FB00200B4909680880FCF735
:103590003FFE00231A4605211846FFF73CFD08E0D0
:1035A000FFF760FF0A20FFF7CAFCFFF7A4FCFFF754
:1035B000A1FEF5E7008000083000002010B50246AB
:1035C0000A2A01DB002010BD02EB4200F54B13F884
:1035D000200008B90020F6E702EB4200F14B03EBB4
:1035E0008000C08808B90020EDE702EB4200ED4BF7
:1035F00003EB8000806802EB4203EA4C04EB830398
:103600009B88C15402EB4200234603EB8000808874
:10361000401C02EB420304EB8303988002EB420060
:10362000234603EB8000808802EB420304EB830314
:10363000DB88984205DB002002EB420304EB8303A6
:1036400098800120BFE7F0B503460C460A2B01DB4A
:103650000020F0BD03EB4300D24D15F8200008B95F
:103660000020F6E703EB4300CE4D05EB8000C08859
:1036700008B90020EDE704B10AB90020E9E700210C
:103680002FE0605C03EB4305C64E06EB8505AD6895
:1036900003EB4306C34F07EB8606B688A85503EB3A
:1036A00043003D4605EB80008088401C03EB43054A
:1036B0003E4606EB8505A88003EB4300354605EB47
:1036C0008000808803EB430506EB8505ED88A84262
:1036D00005DB002003EB430506EB8505A880481CAD
:1036E00081B29142CDDB0120B3E710B502460A2A30
:1036F00001DB002010BD02EB4200AA4B13F82000B2
:1037000008B90020F6E702EB4200A64B03EB80006D
:10371000C08808B90020EDE702EB4200A14B03EBA3
:103720008000408802EB42039E4C04EB83039B889D
:10373000984201D10020DDE702EB4200994B03EBF8
:103740008000806802EB4203964C04EB83035B88A5
:10375000C05C087002EB4200234603EB8000408807
:10376000401C02EB420304EB8303588002EB42004F
:10377000234603EB8000408802EB420304EB830303
:10378000DB88984205DB002002EB420304EB830355
:1037900058800120AEE7F0B503460D460A2B01DB49
:1037A0000020F0BD03EB43007E4E16F8200008B960
:1037B0000020F6E703EB43007A4E06EB8000C0885A
:1037C00008B90020EDE70DB90020EAE73AB103EBB4
:1037D0004300744E06EB8000C088904206DA03EB8B
:1037E0004300704E06EB8000C48800E014460021C0
:1037F0003EE003EB43006B4E06EB8000408803EB9A
:103800004306684F07EB8606B688B04201D10846EA
:10381000C7E703EB4300634E06EB8000806803EBD1
:103820004306604F07EB86067688805D685403EB9D
:1038300043003E4606EB80004088401C03EB4306F5
:1038400007EB8606708003EB43003E4606EB8000E4
:10385000408803EB430607EB8606F688B04205DB9B
:10386000002003EB430607EB86067080481C81B2FC
:10387000A142BEDB204694E710B504460A2C01DBCA
:10388000002010BD04EB4400464911F8200008B99F
:103890000020F6E704EB4400424901EB8000C088B9
:1038A00008B90120EDE7002004EB44013D4A02EB9A
:1038B0008101488004EB440102EB8101888004EB24
:1038C0004402384B03EB8202D18804EB440203EB41
:1038D00082029068302200F05CFD0120D1E70146B1
:1038E0000A2901DB0020704701EB41002D4A12F844
:1038F000200008B90020F6E701EB4100294A02EB5D
:103900008000C08808B90120EDE7002001EB4102EA
:10391000244B03EB8202508001EB410203EB820255
:10392000908001EB410203EB8202D08001EB410267
:1039300003F8220001EB410203EB820290600120B8
:10394000D1E707B503460A2B01DB00200EBD03EBD0
:103950004300144911F82000012800D1F6E702982D
:1039600008B90020F2E703EB43010E4A02EB8101A4
:1039700002988860002003EB430102EB810148803C
:1039800003EB430102EB8101888003EB430102EB6F
:1039900081010198C880012003EB430102F8210056
:1039A00000BFD3E7900F002070B504460E46052CEB
:1039B00004DA04EB4400FC49085C30B9002004EB55
:1039C0004401F94A1144487070BD0CB9002511E05A
:1039D000012C01D102250DE0022C01D1042509E0C2
:1039E000032C01D1062505E0042C01D1082501E0B6
:1039F0000020E9E731462846FFF777FE30B900207E
:103A000004EB4401E84A11444870DDE70120DBE79C
:103A1000F8B504460E46052C04DA04EB4400E249EE
:103A2000085C08B90020F8BD0CB9002511E0012C94
:103A300001D102250DE0022C01D1042509E0032C5F
:103A400001D1062505E0042C01D1082501E0002064
:103A5000E9E731462846FFF7B1FD04EB4400D249BF
:103A60000844407888B9012004EB4401CE4A11444F
:103A7000487069462046FFF797FF9DF80010CB4A33
:103A800002EBC4025068FDF7C7FD0120CBE7F8B593
:103A900004460E461746052C06DA04EB4400C249DC
:103AA000085C08B107B10EB90020F8BD0CB90025BB
:103AB00011E0012C01D102250DE0022C01D10425D9
:103AC00009E0032C01D1062505E0042C01D10825CD
:103AD00001E00020E9E73A4631462846FFF7B3FD0A
:103AE00004EB4400B0490844407888B9012004EB55
:103AF0004401AD4A1144487069462046FFF754FF1F
:103B00009DF80010A94A02EBC4025068FDF784FD3D
:103B10000120CAE770B504460D46052C04DA04EB13
:103B20004400A149085C00B970BD24B929460120B0
:103B3000FFF744FD1CE0012C04D129460320FFF7C8
:103B40003DFD15E0022C04D129460520FFF736FD86
:103B50000EE0032C04D129460720FFF72FFD07E0D4
:103B6000042C04D129460920FFF728FD00E0DBE7FB
:103B700000BFD9E770B504460D46052C04DA04EB06
:103B800044008949085C08B9002070BD24B9294661
:103B90000120FFF7AAFDF8E7012C04D129460320F4
:103BA000FFF7A3FDF1E7022C04D129460520FFF71A
:103BB0009CFDEAE7032C04D129460720FFF795FD79
:103BC000E3E7042C04D129460920FFF78EFDDCE74A
:103BD0000020DAE72DE9F04104460E461746052C91
:103BE00005DA04EB44007049085C00B116B9002006
:103BF000BDE8F0810CB9012511E0012C01D10325AC
:103C00000DE0022C01D1052509E0032C01D1072587
:103C100005E0042C01D1092501E00020E8E73A463F
:103C200031462846FFF7B7FDE2E710B50446052CFC
:103C300004DA04EB44005C49085C08B9002010BDBC
:103C400034B90020FFF718FE0120FFF715FE25E02C
:103C5000012C06D10220FFF70FFE0320FFF70CFE18
:103C60001CE0022C06D10420FFF706FE0520FFF71A
:103C700003FE13E0032C06D10620FFF7FDFD07200D
:103C8000FFF7FAFD0AE0042C06D10820FFF7F4FD47
:103C90000920FFF7F1FD01E00020D0E70120CEE789
:103CA0000FB41FB5044607980090BDF82000ADF88A
:103CB0000400BDF82200ADF80600BDF82400ADF800
:103CC0000800BDF82600ADF80C00BDF82800ADF8DE
:103CD0000A00364901EBC40148686946FDF7A3FBB9
:103CE000324901EBC40148680121FDF728FC2F4946
:103CF00001EBC4010122486840F22661FDF72BFC6C
:103D00002A4901EBC4010122486840F22551FDF720
:103D100022FC1FBC5DF814FB0FB4F8B50446052C5B
:103D200003DB0020F8BC5DF814FB04EB44001E49E3
:103D3000085C012800D1F5E714B90025012615E03B
:103D4000012C02D10225032610E0022C02D1042509
:103D500005260BE0032C02D10625072606E0042CDD
:103D600002D10825092601E00020DBE72846DDE92D
:103D70000B12FFF7E6FD3046DDE90D12FFF7E1FD1E
:103D80000A980090204607A90EC9FFF789FF002076
:103D900004EB4401044A11444870012004EB44013F
:103DA000505400BFBEE7000008100020540000205F
:103DB00010B50446052C01DB002010BD04EB4400C7
:103DC0002949085C08B90020F7E7284901EBC4013C
:103DD00048680021FDF7B3FB244901EBC401002230
:103DE000486840F22661FDF7B6FB204901EBC401AB
:103DF0000022486840F22551FDF7ADFB34B90020A0
:103E0000FFF76DFD0120FFF76AFD25E0012C06D1CB
:103E10000220FFF764FD0320FFF761FD1CE0022C88
:103E200006D10420FFF75BFD0520FFF758FD13E0E6
:103E3000032C06D10620FFF752FD0720FFF74FFDA8
:103E40000AE0042C06D10820FFF749FD0920FFF7FE
:103E500046FD01E00020B0E7002004EB4401024AE7
:103E600050540120A9E70000081000205400002051
:103E700001B502E00098401E009000980028F9D19A
:103E800008BD01B505E00098401E00900A20FFF72C
:103E9000EFFF00980028F6D108BD01B506E00098B4
:103EA000401E009043F69820FFF7E2FF009800289C
:103EB000F5D108BD0420FE490870704700B5022006
:103EC000FFF7DFFF00BFFB48006840F08000F949C2
:103ED000086000BF00BF0846006840F0400008606E
:103EE00000BF0220FFF7CDFF00BFF248001D0068B1
:103EF00040F08000EF49091D086000BF0220FFF775
:103F0000C0FF00BFEB48001D006840F04000E949D9
:103F1000091D086000BF00BD00B50220FFF7B1FF1A
:103F200000BFE448001D006840F04000E149091D61
:103F3000086000BF00BF0846006840F080000860CD
:103F400000BF0220FFF79DFF00BFDA48006840F085
:103F50004000D849086000BF0220FFF792FF00BF71
:103F6000D448006840F08000D249086000BF00BD1E
:103F700010B5FF2400BFCF48006840F08000CD4955
:103F8000086000BF0220FFF77CFF00BFC948001D8A
:103F9000006840F04000C749091D086000BF0220CA
:103FA000FFF76FFF00BFC348006840F04000C14901
:103FB000086000BF0220FFF764FF06E0601EC4B285
:103FC0001CB9FFF7A9FF002010BD8021B9481038A7
:103FD000FCF7F1FC0028F1D100BFB648001D0068D5
:103FE00040F04000B349091D086000BF0120EBE725
:103FF00000B500BFAF48001D006840F08000AD492B
:10400000091D086000BF0220FFF73BFF00BFA94861
:10401000006840F04000A749086000BF0220FFF799
:1040200030FF00BFA348001D006840F04000A149D8
:10403000091D086000BF00BD00B500BF9D480068B5
:1040400040F080009B49086000BF0220FFF719FF85
:1040500000BF9848006840F040009649086000BFE3
:104060000220FFF70EFF00BF9248001D006840F0DD
:1040700040009049091D086000BF00BD00B5014621
:1040800008223BE000BF8B48001D006840F0400064
:10409000884B1B1D186000BF0220FFF7F2FE11F0D5
:1040A000800F07D000BF8348006840F08000814B3C
:1040B000186009E000BF7F48001D006840F08000E4
:1040C0007C4B1B1D186000BF4806010E0220FFF745
:1040D000D8FE00BF7748006840F04000754B18607C
:1040E00000BF0220FFF7CDFE00BF7248001D006830
:1040F00040F040006F4B1B1D186000BF1000A2F184
:104100000103DAB2BED100BF6A48001D006840F06A
:104110004000684B1B1D186000BF00BD70B508252E
:10412000002400BF6348006840F0800061490860D7
:1041300000BF1FE06006040E00BF5E48001D00685F
:1041400040F040005B49091D086000BF0220FFF7F6
:1041500098FE00BF5748006840F04000554908608D
:1041600000BF0220FFF78DFE802152481038FCF777
:1041700022FC04432800A5F10101CDB2DAD100BF31
:104180004C48001D006840F040004A49091D086085
:1041900000BF204670BD2DE9F04180460D46144613
:1041A0001F4614B90020BDE8F0814148007804287A
:1041B00001D00120F7E74FF6FE700540401C00EAF1
:1041C000440402203A49087000BF05F03F00C0F1E6
:1041D0004006A64200DD2646A01B84B2FFF76EFE15
:1041E0004046FFF74BFFFFF7C3FE280AFFF746FFE5
:1041F000FFF7BEFEE8B2FFF741FFFFF7B9FEA819CF
:1042000085B20DE0B01E86B23878FFF737FFFFF7B2
:10421000AFFE3988080AFFF731FFFFF7A9FEBF1C80
:10422000002EEFD1FFF778FE0220FFF736FE002CBC
:10423000CBD104201E4908700020B4E72DE9F041DD
:1042400080460D4614461F4614B90020BDE8F08193
:1042500017480078042801D00120F7E74FF6FE70D8
:104260000540401C00EA440403201149087000BFC7
:1042700005F03F00C0F14006A64200DD2646A01B27
:1042800084B2FFF71BFE4046FFF7F8FEFFF770FE13
:10429000280AFFF7F3FEFFF76BFEE8B2FFF7EEFE2A
:1042A000FFF766FEA81985B2FFF708FE04E00000DC
:1042B0007C000020100C014048F00100FFF7DEFEFA
:1042C000FFF756FE10E0B01E86B2FFF727FF3880DA
:1042D000FFF78EFEFFF722FF398801EB00203880C0
:1042E0000EB1FFF785FEBF1C002EECD1FFF7A4FE38
:1042F000FFF712FE002CBBD10420024908700020F9
:10430000A4E700007C000020032A40F2308010F077
:10431000030C00F0158011F8013BBCF1020F624460
:1043200098BF11F801CB00F8013B38BF11F8013BF1
:10433000A2F1040298BF00F801CB38BF00F8013B9E
:1043400011F0030300F07980083AC0F0088051F8BA
:10435000043B083A51F804CBA0E80810F5E7121D19
:104360005CBF51F8043B40F8043BAFF30080D20738
:1043700024BF11F8013B11F801CB48BF11F8012B04
:1043800024BF00F8013B00F801CB48BF00F8012B27
:10439000704702F0FF0343EA032242EA024200F0C0
:1043A00002B84FF000020429C0F0128010F0030C94
:1043B00000F01B80CCF1040CBCF1020F18BF00F818
:1043C000012BA8BF20F8022BA1EB0C0100F00DB8C7
:1043D0005FEAC17C24BF00F8012B00F8012B48BF25
:1043E00000F8012B70474FF0000200B513469446C9
:1043F0009646203922BFA0E80C50A0E80C50B1F13D
:104400002001BFF4F7AF090728BFA0E80C5048BF50
:104410000CC05DF804EB890028BF40F8042B08BFEE
:10442000704748BF20F8022B11F0804F18BF00F8EA
:10443000012B704770477047704710B5203AC0F0A5
:104440000B80B1E81850203AA0E81850B1E8185095
:10445000A0E81850BFF4F5AF5FEA027C24BFB1E8D2
:104460001850A0E8185044BF18C918C0BDE8104043
:104470005FEA827C24BF51F8043B40F8043B08BF4C
:104480007047D20728BF31F8023B48BF11F8012B13
:1044900028BF20F8023B48BF00F8012B7047754643
:1044A00000F028F8AE4605006946534620F00700A4
:1044B000854618B020B5FEF7FFF8BDE820404FF064
:1044C00000064FF000074FF000084FF0000B21F0FE
:1044D0000701AC46ACE8C009ACE8C009ACE8C009CB
:1044E000ACE8C0098D4670470446AFF30080204613
:1044F000FBF775FE0048704718100020014918208E
:10450000ABBEFEE726000200704700002C45000805
:1045100000000020800000008C010008AC4500086D
:1045200080000020F8150000A8010008000000002D
:104530000102030401020304060708090204060835
:10454000000000000000000000000000000000006B
:10455000000100004A00000001000000FCFF0020F4
:10456000000000000000000000000000000000004B
:10457000000000000100000000000000000000003A
:10458000000000000038014001000000004400402D
:10459000020000000048004003000000004C004002
:0C45A0000400000000500040000000007B
:020000040800F2
:1080000048C0002085820008E5BB0008E7BB0008E7
:10801000F1BB0008F5BB0008F9BB00080000000038
:10802000000000000000000000000000FDBB000890
:10803000FFBB000800000000FFB7000803BC0008F9
:108040009B8200089B8200089B8200089B8200089C
:108050009B8200089B8200089B8200089B8200088C
:108060009B8200089B8200089B820008B5C1000823
:108070009B8200089B8200089B8200089B8200086C
:108080009B8200089B8200089B8200089B8200085C
:108090009B8200089B8200089B8200089B8200084C
:1080A0009B8200089B8200089B8200089B8200083C
:1080B0009B820008E5C10008C7C300089B82000836
:1080C0009B8200089B8200089B8200089B8200081C
:1080D0009B82000851BC0008D5BC000863BD0008A5
:1080E0009B8200089B8200089B8200089B820008FC
:1080F0009B8200089B8200089B8200089B820008EC
:108100009B8200089B82000899C500089B8200089A
:10811000E7BD00086BBE00089B820008C5C50008CB
:108120009B8200089B8200089B8200089B820008BB
:1081300000F002F800F093F80AA090E8000C8244E6
:108140008344AAF10107DA4501D100F088F8AFF2C3
:10815000090EBAE80F0013F0010F18BFFB1A43F025
:1081600001031847DC7F02000C8002000A444FF034
:10817000000C10F8013B13F0070408BF10F8014B86
:108180001D1108BF10F8015B641E05D010F8016BCB
:10819000641E01F8016BF9D113F0080F1EBF10F82F
:1081A000014BAD1C0C1B09D16D1E58BF01F801CB52
:1081B000FAD505E014F8016B01F8016B6D1EF9D5D5
:1081C0009142D6D370470000103A24BF78C878C1D6
:1081D000FAD8520724BF30C830C144BF04680C60CD
:1081E000704700000023002400250026103A28BF15
:1081F00078C1FBD8520728BF30C148BF0B60704719
:10820000702922F0F782692922F0F881642922F08E
:10821000F581752922F0F2816F2922F0898278296F
:1082200022F0DB820368DB0928BF41F0800163296B
:1082300022F00787732922F00C87E32922F01787A1
:10824000002070471FB522F03FFF040000200021EE
:1082500022F07CFF401C60601FBD10B510BD22F0F5
:108260003BFF1146FFF7EEFF06F062FB22F059FFDD
:1082700003B4FFF7F2FF03BC22F05AFF72B6704757
:1082800062B6704708480047FEE7FEE7FEE7FEE7F4
:10829000FEE7FEE7FEE7FEE7FEE7FEE703480449E8
:1082A000044A054B704700003181000848BA00209D
:1082B00048C0002048BC002048BC00203149014390
:1082C000314A1160704770B5002100230F22C47835
:1082D0000CB32D4C246804F4E064C4F5E064210A76
:1082E000C1F10403CA40447804FA03F184781440CD
:1082F00021430901254C0678A155047804F01F0597
:108300000124AC4005786D114FF0E02606EB8505A1
:10831000C5F8004109E0047804F01F050124AC40D1
:108320001B4D0678761145F8264070BD194A0A4063
:108330000243154B1B1F1A60704739B1124A121DB8
:1083400012680243104B1B1D1A6006E00E4A121DF4
:10835000126882430C4B1B1D1A607047042808D119
:108360004FF0E021096941F004014FF0E022116172
:1083700007E04FF0E021096921F004014FF0E0220D
:10838000116170470000FA050CED00E000E400E028
:1083900080E100E080FFFF1F10B50446FA488442E8
:1083A00008D10121401501F053FE0021601501F0B4
:1083B0004FFE17E0F548844208D10121001501F075
:1083C00047FE0021201501F043FE0BE0F0488442F7
:1083D00008D10121C80301F03BFE00214FF4004009
:1083E00001F036FE10BD30B5024600200023506873
:1083F000E84C20400D790C6844EA05242043506085
:108400009068E54C2040D1E902542C434D7944EA70
:10841000450420439060D06A20F470000C7C641EF8
:10842000E4B2234340EA0350D06230BD0021016032
:10843000017141718160C16001210174704721B1F6
:10844000826842F00102826003E0826822F0010249
:108450008260704721B1826842F48072826003E0DA
:10846000826822F480728260704710B50023CBB21C
:108470001AB144681C43446002E044689C43446071
:1084800010BD816841F008018160704701460020FD
:108490008A6812F0080F01D0012000E00020704728
:1084A000816841F0040181607047014600208A68BC
:1084B00012F0040F01D0012000E00020704721B12C
:1084C000826842F4A002826003E0826822F4A00283
:1084D00082607047014600208A6812F4800F01D044
:1084E000012000E00020704710B50A46002100235B
:1084F000416821F46041531E41EA4331416010BD9F
:1085000021B1426842F40062426003E0426822F412
:10851000006242607047F0B504460D46002000211D
:10852000092D11DDE068A5F10A0606EB46070726CE
:1085300006FA07F18843A5F10A0606EB460603FA98
:1085400006F10843E0600CE0206905EB45070726CB
:1085500006FA07F1884305EB450603FA06F10843DE
:108560002061072A0FDA606B561E06EB86071F266E
:1085700006FA07F18843561E06EB860605FA06F151
:108580000843606322E00D2A0FDA206BD61F06EB4A
:1085900086071F2606FA07F18843D61F06EB8606D4
:1085A00005FA06F10843206310E0E06AA2F10D0627
:1085B00006EB86071F2606FA07F18843A2F10D068F
:1085C00006EB860605FA06F10843E062F0BD21B12C
:1085D000826842F48012826003E0826822F4801292
:1085E000826070470146C86C80B2704766484C3064
:1085F0000068704721B1426842F48062426003E043
:10860000426822F480624260704721B1426842F4BD
:108610008052426003E0426822F480524260704718
:108620000A460021816821F4E041114381607047CE
:1086300021B1826842F40042826003E0826822F441
:1086400000428260704721B1826842F40212826067
:1086500003E0826822F40212826070470146002023
:108660008A6812F4001F01D0012000E0002070474A
:10867000F0B504461546002000220026092911DD28
:10868000E068A1F10A0707EB470C072707FA0CF28D
:108690009043A1F10A0707EB470703FA07F21043DB
:1086A000E0600CE0206901EB410C072707FA0CF2AF
:1086B000904301EB410703FA07F210432061A06BDE
:1086C000C0F30156EF1C06F1010CA7EB0C0707EBFA
:1086D000870C1F2707FA0CF29043EF1C06F1010CE0
:1086E000A7EB0C0707EB870701FA07F21043A0631B
:1086F000F0BD10B50A4600210023816B21F4401122
:10870000531E41EA0351816310BD08B50023009355
:108710000090009B0B440093009B1A6008BD08B5B5
:10872000024600200090009201F12800009B1844AE
:1087300000900098006880B208BD0A460021416898
:10874000164B194011434160704741628262704785
:108750000A460021416821F01F0111434160704722
:1087600040B109490831096841F40001064A08325C
:10877000116007E004490831096821F40001024A48
:1087800008321160704700000024014000280140B9
:10879000003C0140FFFEF0FFFDF7F1FFFFFD3FFF52
:1087A0000246002013680B4201D0012000E00020A7
:1087B0007047CA430260704770B50246002000232C
:1087C00000240B125568CEB205EA060415681D4256
:1087D00002D00CB1012000E0002070BD00220A127E
:1087E000D34303607047000010B50446FE4884423E
:1087F00009D10121480601F038FC00214FF000703A
:1088000001F033FC08E00121880601F02EFC002174
:108810004FF0806001F029FC10BD30B50246002009
:108820000023146824F002041460146844F0010466
:10883000146000E05B1C546814F0010F03D1A3F531
:108840007F44FF3CF6D1546814F0010F01D10020A1
:108850006CE08C79012C04D1146844F0800414601D
:1088600003E0146824F080041460CC79012C04D156
:10887000146844F04004146003E0146824F04004D9
:1088800014600C7A012C04D1146844F020041460A4
:1088900003E0146824F0200414604C7A012C04D105
:1088A000146844F01004146003E0146824F0100409
:1088B00014608C7A012C04D1146844F0080414600C
:1088C00003E0146824F008041460CC7A012C04D16D
:1088D000146844F00404146003E0146824F00404F1
:1088E00014608C78A407CD7844EA05640D7944EAD5
:1088F00005444D7944EA05540D886D1E2C43D4611E
:10890000146824F001041460002300E05B1C546828
:1089100014F0010F03D0A3F57F44FF3CF6D1546857
:1089200014F0010F01D0002000E0012030BD10B58F
:108930000021837A012202FA03F1AC4A126842F064
:108940000102AA4B1A60A94A1C3212688A43A74B3B
:108950001C331A60027BCAB9A44A0C3212688A43DB
:10896000A24B0C331A604288C38842EA03439F4AF1
:108970004032847A42F834300288838842EA0343E2
:108980009A4A4032847A02EBC4025360027B012A85
:1089900019D1964A0C3212680A43944B0C331A6070
:1089A0004288038842EA0343904A4032847A42F87C
:1089B0003430C288838842EA03438C4A4032847A46
:1089C00002EBC4025360C27A3AB9884A121D126897
:1089D0008A43864B1B1D1A6006E0844A121D1268EA
:1089E0000A43824B1B1D1A60028932B97F4A143236
:1089F00012688A437D4B14331A600289012A06D11A
:108A00007A4A143212680A43784B14331A60427B54
:108A1000012A06D1754A1C3212680A43734B1C3373
:108A20001A60724A126822F00102704B1A6010BD7F
:108A300000218171C171017241728172C1728170B4
:108A4000C170032101710221417101210180704730
:108A50006649096841F00101644A116011460968DC
:108A600043F60E729143614A11601146096841EA6A
:108A7000002111601146096821F001011160704761
:108A800021B1026842F48032026003E0026822F4FD
:108A9000803202607047E1B1026842F080020260F9
:108AA0004FF4C272125842F480734FF4C2721350E2
:108AB0004FF4CA72125842F480734FF4CA721350C2
:108AC0004FF4D272125842F480734FF4D2721350A2
:108AD0001BE0026822F0800202604FF4C27212585A
:108AE00022F480734FF4C27213504FF4CA721258BA
:108AF00022F480734FF4CA7213504FF4D27212589A
:108B000022F480734FF4D2721350704710B50246AE
:108B10000020936803F08063B3F1806F00D110E010
:108B2000936803F00063B3F1006F01D1012008E006
:108B3000936803F08053B3F1805F01D1022000E01D
:108B40000420042879D002F5C07303EB00131B68DE
:108B500003F0010402F5C07303EB00131C600B7AF1
:108B60007BB94B7A0C8843EA445302F5C07404EB9A
:108B700000142468234302F5C07404EB001423603E
:108B800010E00B7A4C6843EAC4034C7A234302F5A5
:108B9000C07404EB00142468234302F5C07404EB92
:108BA000001423608B7A03F00F038B7202F5C073FD
:108BB00003EB00135B6823F00F0402F5C07303EBB3
:108BC00000135C6002F5C07303EB00135B688C7AE2
:108BD000234302F5C07404EB001463608B7B1C0616
:108BE0004B7B44EA034403E000640040006600401D
:108BF0000B7B44EA0323CC7A234302F5C07404EBD5
:108C00000014A3608B7C1C064B7C44EA03440B7C61
:108C100044EA0323CC7B234302F5C07404EB001425
:108C2000E36002F5C07303EB00131B6843F001041B
:108C300002F5C07303EB00131C6010BD10B50246B3
:108C4000002321B1012907D002290FD109E0906842
:108C5000F84C00EA04030BE09068F74C00EA0403C8
:108C600006E09068F54C00EA040301E0002300BF31
:108C700000BFF34C181BA34216D007DC83B16FF082
:108C8000806018180ED0022818D111E0B0F5007FCE
:108C900010D0EC4C001909D0B0F5003F0ED10BE01C
:108CA00002230DE000230BE0002309E0002307E08E
:108CB000012305E0012303E0012301E0002300BFBD
:108CC00000BFD8B210BD21B1012907D002290FD1B0
:108CD00009E0826842F0800282600AE0826842F421
:108CE0000042826005E0826842F40002826000E097
:108CF00000BF00BF704710B500F5D87303EB011338
:108D00001B6803F004031372137A53B900F5D87388
:108D100003EB01131B6840F2FF7404EA5353136022
:108D200009E000F5D87303EB01131B686FF0604492
:108D300004EAD303536000F5D87303EB01131B68F7
:108D400003F00203537200F5D87303EB01135B6861
:108D500003F00F03937200F5D87303EB01135B6804
:108D60001B0AD37400F5D87303EB01139B68D3720D
:108D700000F5D87303EB01139B681C0A147300F50C
:108D8000D87303EB01139B681C0C547300F5D87364
:108D900003EB01139B681B0E937300F5D87303EB71
:108DA0000113DB68D37300F5D87303EB0113DB68A1
:108DB0001C0A147400F5D87303EB0113DB681C0C58
:108DC000547400F5D87303EB0113DB681B0E937426
:108DD00021B9C36843F02003C36003E0036943F093
:108DE0002003036110BD21B9C26842F02002C260B5
:108DF00003E0026942F0200202617047024600204F
:108E000019B9D36803F0030006E0012903D11369FF
:108E100003F0030000E00020704710B502460B4647
:108E200000204FF6FF71BBB9146824F0020444F02F
:108E30000104146000E0491E546804F00304012C8E
:108E400001D00029F7D1546804F00304012C01D0AB
:108E5000002032E0012030E0012B13D1146824F00F
:108E60000304146000E0491E546814F0030F01D09D
:108E70000029F8D1546814F0030F01D000201CE041
:108E800001201AE0022B17D1146824F0010444F0E9
:108E90000204146000E0491E546804F00304022C2C
:108EA00001D00029F7D1546804F00304022C01D04A
:108EB000002002E0012000E0002010BD014600205B
:108EC0000A6822F0010242F002020A604A6802F0D7
:108ED0000302022A00D10120704701464FF6FF72BB
:108EE00000200B6823F002030B6000E0521E4B6869
:108EF00003F00203022B01D1002AF7D14B6803F0E3
:108F00000203022B00D001207047014600208A692D
:108F100002F070007047014600208A69100E704709
:108F2000014600208A69C2F3074070471AB14369BD
:108F30000B43436102E043698B434361704710B5C3
:108F40000246002011F4700F08D09369C1F3130496
:108F5000234201D001202DE000202BE011F0807F82
:108F600008D05368C1F31304234201D0012021E04B
:108F700000201FE011F0006F08D09368C1F31304C4
:108F8000234201D0012015E0002013E011F0007F02
:108F900008D0D368C1F31304234201D0012009E0B3
:108FA000002007E01369C1F31304234201D001201C
:108FB00000E0002010BD0022234B994202D1002383
:108FC000836111E0C1F3130211F0007F01D0C26090
:108FD0000AE011F0806F01D0026105E011F0006F2E
:108FE00001D0826000E042607047024600200A42E1
:108FF00001D0012000E00020704770B504460D4606
:1090000000266069284272D0B5F5807F69D01DDCEA
:10901000082D42D006DC012D2DD0022D31D0042D9B
:109020007FD134E0102D3ED0202D42D0402D78D17C
:1090300045E00000030000040003000800000310E6
:10904000000100080001FFF77000F030B5F5004F97
:1090500061D009DCB5F5007F4AD0B5F5806F4DD001
:10906000B5F5006F5DD150E0B5F5803F2DD0B5F579
:10907000003F56D12FE0A0685549FFF7B6FF0646DE
:1090800051E0E0680321FFF7B0FF06464BE0E068DF
:109090000821FFF7AAFF064645E0E0681021FFF728
:1090A000A4FF06463FE020690321FFF79EFF064626
:1090B00039E020690821FFF798FF064633E0206970
:1090C0001021FFF792FF06462DE060680821FFF7A8
:1090D0008CFF064627E060681021FFF786FF0646F2
:1090E00021E0A0690121FFF780FF06461BE01BE09D
:1090F000A0690221FFF779FF064614E0A069042168
:10910000FFF773FF06460EE00BE0A0697021FFF742
:109110006CFF064607E060680421FFF766FF06461D
:1091200001E0002600BF00E00026304670BDB1F52A
:10913000007F3AD00FDC202928D006DC01291CD082
:1091400004291DD0082940D11DE0402921D0B1F5C6
:10915000807F3AD126E0B1F5004F31D006DCB1F581
:10916000806F25D0B1F5006F2FD124E0B1F5803F9D
:1091700012D0B1F5003F28D111E0154A826025E0F8
:109180000822C26022E01022C2601FE008220261B1
:109190001CE01022026119E00822426016E0102251
:1091A000426013E00422426010E0042242600DE0BD
:1091B000042242600AE0002282610422426005E04B
:1091C000002282610422426000E000BF00BF7047BD
:1091D0000101010001684FF6FE721140016000219B
:1091E000016041608160C1608C49884208D18B492F
:1091F0000839496841F00F01884A083A51608AE00D
:1092000086491431884208D184490839496841F0B7
:10921000F001824A083A51607DE080492831884255
:1092200008D17E490839496841F470617B4A083A9F
:10923000516070E079493C31884208D1774908395A
:10924000496841F47041754A083A516063E07349D6
:109250005031884208D171490839496841F4702178
:109260006E4A083A516056E06C496431884208D130
:109270006A490839496841F47001684A083A5160FE
:1092800049E066497831884208D16449083949681B
:1092900041F07061614A083A51603CE0604988429F
:1092A00006D1011F096841F00F01021F116032E071
:1092B0005B491431884208D15949091F096841F0B6
:1092C000F001574A121F116025E0554928318842A4
:1092D00008D15349091F096841F47061504A121FAF
:1092E000116018E04E493C31884208D14C49091FB1
:1092F000096841F470414A4A121F11600BE0484965
:109300005031884207D14649091F096841F470214C
:10931000434A121F1160704710B50022026847F6D9
:10932000F0739A430C6A8B6823430C6923434C699E
:1093300023438C692343CC6923434C6A23438C6ABF
:1093400023431A430260CB6843600B6883604B6819
:10935000C36010BD0021016041608160C160016196
:1093600041618161C161016241628162704721B1E5
:10937000026842F00102026004E002684FF6FE73E8
:109380001A40026070471AB103680B43036002E0A1
:1093900003688B430360704741607047014648682B
:1093A00080B2704701460020002211F0805F03D098
:1093B0001B4B083B1A6802E0184B083B1A680A422C
:1093C00001D0012000E00020704710F0805F03D042
:1093D0001349091F086002E01049083948607047C6
:1093E00001460020002211F0805F03D00C4B083BA7
:1093F0001A6802E0094B083B1A680A4201D00120B2
:1094000000E00020704710F0805F03D00449091F7E
:10941000086002E0014908394860704708000240CE
:109420000804024001460020FE4A106800F038009F
:10943000084310607047FB49096821F00801F94AA8
:10944000116011460968014311607047F5490968C8
:1094500021F01001F34A11601146096801431160BF
:109460007047F148EF494860F04848607047EE485F
:10947000EC494860ED4848607047EA48006940F0B0
:109480008000E84908617047E648006940F08000C4
:10949000E449086170470420E249C96811F0010FEE
:1094A00001D001200EE0DF49C96811F0040F01D09E
:1094B000022007E0DB49C96811F0100F01D003203A
:1094C00000E00420704700B502460423FFF7E3FFE5
:1094D000034603E0FFF7DFFF0346521E012B01D1D5
:1094E000002AF7D102B90523184600BD30B504465D
:1094F0000425CF48FFF7E7FF0546042D16D1C948DC
:10950000006940F00200C7490861084644610069EB
:1095100040F040000861C648FFF7D5FF0546C14846
:10952000006941F6FD710840BE490861284630BD1A
